{
  "_format": "hh-sol-artifact-1",
  "contractName": "Stake",
  "sourceName": "contracts/Stake.sol",
  "abi": [
    {
      "inputs": [],
      "stateMutability": "nonpayable",
      "type": "constructor"
    },
    {
      "inputs": [
        {
          "internalType": "address",
          "name": "spender",
          "type": "address"
        },
        {
          "internalType": "uint256",
          "name": "allowance",
          "type": "uint256"
        },
        {
          "internalType": "uint256",
          "name": "needed",
          "type": "uint256"
        }
      ],
      "name": "ERC20InsufficientAllowance",
      "type": "error"
    },
    {
      "inputs": [
        {
          "internalType": "address",
          "name": "sender",
          "type": "address"
        },
        {
          "internalType": "uint256",
          "name": "balance",
          "type": "uint256"
        },
        {
          "internalType": "uint256",
          "name": "needed",
          "type": "uint256"
        }
      ],
      "name": "ERC20InsufficientBalance",
      "type": "error"
    },
    {
      "inputs": [
        {
          "internalType": "address",
          "name": "approver",
          "type": "address"
        }
      ],
      "name": "ERC20InvalidApprover",
      "type": "error"
    },
    {
      "inputs": [
        {
          "internalType": "address",
          "name": "receiver",
          "type": "address"
        }
      ],
      "name": "ERC20InvalidReceiver",
      "type": "error"
    },
    {
      "inputs": [
        {
          "internalType": "address",
          "name": "sender",
          "type": "address"
        }
      ],
      "name": "ERC20InvalidSender",
      "type": "error"
    },
    {
      "inputs": [
        {
          "internalType": "address",
          "name": "spender",
          "type": "address"
        }
      ],
      "name": "ERC20InvalidSpender",
      "type": "error"
    },
    {
      "anonymous": false,
      "inputs": [
        {
          "indexed": true,
          "internalType": "address",
          "name": "owner",
          "type": "address"
        },
        {
          "indexed": true,
          "internalType": "address",
          "name": "spender",
          "type": "address"
        },
        {
          "indexed": false,
          "internalType": "uint256",
          "name": "value",
          "type": "uint256"
        }
      ],
      "name": "Approval",
      "type": "event"
    },
    {
      "anonymous": false,
      "inputs": [
        {
          "indexed": true,
          "internalType": "address",
          "name": "from",
          "type": "address"
        },
        {
          "indexed": true,
          "internalType": "address",
          "name": "to",
          "type": "address"
        },
        {
          "indexed": false,
          "internalType": "uint256",
          "name": "value",
          "type": "uint256"
        }
      ],
      "name": "Transfer",
      "type": "event"
    },
    {
      "inputs": [
        {
          "internalType": "address",
          "name": "owner",
          "type": "address"
        },
        {
          "internalType": "address",
          "name": "spender",
          "type": "address"
        }
      ],
      "name": "allowance",
      "outputs": [
        {
          "internalType": "uint256",
          "name": "",
          "type": "uint256"
        }
      ],
      "stateMutability": "view",
      "type": "function"
    },
    {
      "inputs": [
        {
          "internalType": "address",
          "name": "spender",
          "type": "address"
        },
        {
          "internalType": "uint256",
          "name": "value",
          "type": "uint256"
        }
      ],
      "name": "approve",
      "outputs": [
        {
          "internalType": "bool",
          "name": "",
          "type": "bool"
        }
      ],
      "stateMutability": "nonpayable",
      "type": "function"
    },
    {
      "inputs": [
        {
          "internalType": "address",
          "name": "account",
          "type": "address"
        }
      ],
      "name": "balanceOf",
      "outputs": [
        {
          "internalType": "uint256",
          "name": "",
          "type": "uint256"
        }
      ],
      "stateMutability": "view",
      "type": "function"
    },
    {
      "inputs": [
        {
          "internalType": "address",
          "name": "_user",
          "type": "address"
        }
      ],
      "name": "calculateRewards",
      "outputs": [],
      "stateMutability": "nonpayable",
      "type": "function"
    },
    {
      "inputs": [],
      "name": "claimRewards",
      "outputs": [],
      "stateMutability": "nonpayable",
      "type": "function"
    },
    {
      "inputs": [],
      "name": "decimals",
      "outputs": [
        {
          "internalType": "uint8",
          "name": "",
          "type": "uint8"
        }
      ],
      "stateMutability": "view",
      "type": "function"
    },
    {
      "inputs": [
        {
          "internalType": "address",
          "name": "_user",
          "type": "address"
        }
      ],
      "name": "getAmountStaked",
      "outputs": [
        {
          "internalType": "uint256",
          "name": "",
          "type": "uint256"
        }
      ],
      "stateMutability": "view",
      "type": "function"
    },
    {
      "inputs": [
        {
          "internalType": "address",
          "name": "_user",
          "type": "address"
        }
      ],
      "name": "getRewardsForUser",
      "outputs": [
        {
          "internalType": "uint256",
          "name": "",
          "type": "uint256"
        }
      ],
      "stateMutability": "view",
      "type": "function"
    },
    {
      "inputs": [],
      "name": "name",
      "outputs": [
        {
          "internalType": "string",
          "name": "",
          "type": "string"
        }
      ],
      "stateMutability": "view",
      "type": "function"
    },
    {
      "inputs": [],
      "name": "owner",
      "outputs": [
        {
          "internalType": "address",
          "name": "",
          "type": "address"
        }
      ],
      "stateMutability": "view",
      "type": "function"
    },
    {
      "inputs": [
        {
          "internalType": "address",
          "name": "",
          "type": "address"
        }
      ],
      "name": "rewards",
      "outputs": [
        {
          "internalType": "uint256",
          "name": "",
          "type": "uint256"
        }
      ],
      "stateMutability": "view",
      "type": "function"
    },
    {
      "inputs": [],
      "name": "stake",
      "outputs": [],
      "stateMutability": "payable",
      "type": "function"
    },
    {
      "inputs": [
        {
          "internalType": "address",
          "name": "",
          "type": "address"
        }
      ],
      "name": "stakers",
      "outputs": [
        {
          "internalType": "address",
          "name": "staker",
          "type": "address"
        },
        {
          "internalType": "uint256",
          "name": "amountStaked",
          "type": "uint256"
        },
        {
          "internalType": "uint256",
          "name": "lastStakedTime",
          "type": "uint256"
        }
      ],
      "stateMutability": "view",
      "type": "function"
    },
    {
      "inputs": [],
      "name": "symbol",
      "outputs": [
        {
          "internalType": "string",
          "name": "",
          "type": "string"
        }
      ],
      "stateMutability": "view",
      "type": "function"
    },
    {
      "inputs": [],
      "name": "totalAmountStaked",
      "outputs": [
        {
          "internalType": "uint256",
          "name": "",
          "type": "uint256"
        }
      ],
      "stateMutability": "view",
      "type": "function"
    },
    {
      "inputs": [],
      "name": "totalSupply",
      "outputs": [
        {
          "internalType": "uint256",
          "name": "",
          "type": "uint256"
        }
      ],
      "stateMutability": "view",
      "type": "function"
    },
    {
      "inputs": [
        {
          "internalType": "address",
          "name": "to",
          "type": "address"
        },
        {
          "internalType": "uint256",
          "name": "value",
          "type": "uint256"
        }
      ],
      "name": "transfer",
      "outputs": [
        {
          "internalType": "bool",
          "name": "",
          "type": "bool"
        }
      ],
      "stateMutability": "nonpayable",
      "type": "function"
    },
    {
      "inputs": [
        {
          "internalType": "address",
          "name": "from",
          "type": "address"
        },
        {
          "internalType": "address",
          "name": "to",
          "type": "address"
        },
        {
          "internalType": "uint256",
          "name": "value",
          "type": "uint256"
        }
      ],
      "name": "transferFrom",
      "outputs": [
        {
          "internalType": "bool",
          "name": "",
          "type": "bool"
        }
      ],
      "stateMutability": "nonpayable",
      "type": "function"
    },
    {
      "inputs": [
        {
          "internalType": "uint256",
          "name": "amount",
          "type": "uint256"
        }
      ],
      "name": "unstake",
      "outputs": [],
      "stateMutability": "nonpayable",
      "type": "function"
    }
  ],
  "bytecode": "0x60806040523480156200001157600080fd5b506040518060400160405280600681526020017f52657761726400000000000000000000000000000000000000000000000000008152506040518060400160405280600381526020017f525744000000000000000000000000000000000000000000000000000000000081525081600390816200008f91906200036d565b508060049081620000a191906200036d565b50505033600660006101000a81548173ffffffffffffffffffffffffffffffffffffffff021916908373ffffffffffffffffffffffffffffffffffffffff160217905550600060058190555062000454565b600081519050919050565b7f4e487b7100000000000000000000000000000000000000000000000000000000600052604160045260246000fd5b7f4e487b7100000000000000000000000000000000000000000000000000000000600052602260045260246000fd5b600060028204905060018216806200017557607f821691505b6020821081036200018b576200018a6200012d565b5b50919050565b60008190508160005260206000209050919050565b60006020601f8301049050919050565b600082821b905092915050565b600060088302620001f57fffffffffffffffffffffffffffffffffffffffffffffffffffffffffffffffff82620001b6565b620002018683620001b6565b95508019841693508086168417925050509392505050565b6000819050919050565b6000819050919050565b60006200024e62000248620002428462000219565b62000223565b62000219565b9050919050565b6000819050919050565b6200026a836200022d565b62000282620002798262000255565b848454620001c3565b825550505050565b600090565b620002996200028a565b620002a68184846200025f565b505050565b5b81811015620002ce57620002c26000826200028f565b600181019050620002ac565b5050565b601f8211156200031d57620002e78162000191565b620002f284620001a6565b8101602085101562000302578190505b6200031a6200031185620001a6565b830182620002ab565b50505b505050565b600082821c905092915050565b6000620003426000198460080262000322565b1980831691505092915050565b60006200035d83836200032f565b9150826002028217905092915050565b6200037882620000f3565b67ffffffffffffffff811115620003945762000393620000fe565b5b620003a082546200015c565b620003ad828285620002d2565b600060209050601f831160018114620003e55760008415620003d0578287015190505b620003dc85826200034f565b8655506200044c565b601f198416620003f58662000191565b60005b828110156200041f57848901518255600182019150602085019450602081019050620003f8565b868310156200043f57848901516200043b601f8916826200032f565b8355505b6001600288020188555050505b505050505050565b611a3c80620004646000396000f3fe6080604052600436106101145760003560e01c80635104c819116100a057806395d89b411161006457806395d89b41146103a8578063a9059cbb146103d3578063dd62ed3e14610410578063ed89eb301461044d578063fe961f611461048a57610114565b80635104c8191461029b57806364ab8675146102d857806370a08231146103015780638da5cb5b1461033e5780639168ae721461036957610114565b806323b872dd116100e757806323b872dd146101e95780632e17de7814610226578063313ce5671461024f578063372500ab1461027a5780633a4b66f11461029157610114565b806306fdde03146101195780630700037d14610144578063095ea7b31461018157806318160ddd146101be575b600080fd5b34801561012557600080fd5b5061012e6104b5565b60405161013b91906114b5565b60405180910390f35b34801561015057600080fd5b5061016b6004803603810190610166919061153a565b610547565b6040516101789190611580565b60405180910390f35b34801561018d57600080fd5b506101a860048036038101906101a391906115c7565b61055f565b6040516101b59190611622565b60405180910390f35b3480156101ca57600080fd5b506101d3610582565b6040516101e09190611580565b60405180910390f35b3480156101f557600080fd5b50610210600480360381019061020b919061163d565b61058c565b60405161021d9190611622565b60405180910390f35b34801561023257600080fd5b5061024d60048036038101906102489190611690565b6105bb565b005b34801561025b57600080fd5b5061026461074c565b60405161027191906116d9565b60405180910390f35b34801561028657600080fd5b5061028f610755565b005b610299610867565b005b3480156102a757600080fd5b506102c260048036038101906102bd919061153a565b610a4a565b6040516102cf9190611580565b60405180910390f35b3480156102e457600080fd5b506102ff60048036038101906102fa919061153a565b610a96565b005b34801561030d57600080fd5b506103286004803603810190610323919061153a565b610bc2565b6040516103359190611580565b60405180910390f35b34801561034a57600080fd5b50610353610c0a565b6040516103609190611703565b60405180910390f35b34801561037557600080fd5b50610390600480360381019061038b919061153a565b610c30565b60405161039f9392919061171e565b60405180910390f35b3480156103b457600080fd5b506103bd610c7a565b6040516103ca91906114b5565b60405180910390f35b3480156103df57600080fd5b506103fa60048036038101906103f591906115c7565b610d0c565b6040516104079190611622565b60405180910390f35b34801561041c57600080fd5b5061043760048036038101906104329190611755565b610d2f565b6040516104449190611580565b60405180910390f35b34801561045957600080fd5b50610474600480360381019061046f919061153a565b610db6565b6040516104819190611580565b60405180910390f35b34801561049657600080fd5b5061049f610dff565b6040516104ac9190611580565b60405180910390f35b6060600380546104c4906117c4565b80601f01602080910402602001604051908101604052809291908181526020018280546104f0906117c4565b801561053d5780601f106105125761010080835404028352916020019161053d565b820191906000526020600020905b81548152906001019060200180831161052057829003601f168201915b5050505050905090565b60086020528060005260406000206000915090505481565b60008061056a610e05565b9050610577818585610e0d565b600191505092915050565b6000600254905090565b600080610597610e05565b90506105a4858285610e1f565b6105af858585610eb3565b60019150509392505050565b80600760003373ffffffffffffffffffffffffffffffffffffffff1673ffffffffffffffffffffffffffffffffffffffff168152602001908152602001600020600101541015610640576040517f08c379a000000000000000000000000000000000000000000000000000000000815260040161063790611841565b60405180910390fd5b61064933610a96565b80600760003373ffffffffffffffffffffffffffffffffffffffff1673ffffffffffffffffffffffffffffffffffffffff168152602001908152602001600020600101600082825461069b9190611890565b9250508190555042600760003373ffffffffffffffffffffffffffffffffffffffff1673ffffffffffffffffffffffffffffffffffffffff168152602001908152602001600020600201819055503373ffffffffffffffffffffffffffffffffffffffff166108fc829081150290604051600060405180830381858888f1935050505015801561072f573d6000803e3d6000fd5b5080600560008282546107429190611890565b9250508190555050565b60006012905090565b6000600860003373ffffffffffffffffffffffffffffffffffffffff1673ffffffffffffffffffffffffffffffffffffffff16815260200190815260200160002054116107d7576040517f08c379a00000000000000000000000000000000000000000000000000000000081526004016107ce90611910565b60405180910390fd5b61082033600860003373ffffffffffffffffffffffffffffffffffffffff1673ffffffffffffffffffffffffffffffffffffffff16815260200190815260200160002054610fa7565b6000600860003373ffffffffffffffffffffffffffffffffffffffff1673ffffffffffffffffffffffffffffffffffffffff16815260200190815260200160002081905550565b6000600760003373ffffffffffffffffffffffffffffffffffffffff1673ffffffffffffffffffffffffffffffffffffffff168152602001908152602001600020600101541115610960576108bb33610a96565b34600760003373ffffffffffffffffffffffffffffffffffffffff1673ffffffffffffffffffffffffffffffffffffffff168152602001908152602001600020600101600082825461090d9190611930565b9250508190555042600760003373ffffffffffffffffffffffffffffffffffffffff1673ffffffffffffffffffffffffffffffffffffffff16815260200190815260200160002060020181905550610a2f565b60405180606001604052803373ffffffffffffffffffffffffffffffffffffffff16815260200134815260200142815250600760003373ffffffffffffffffffffffffffffffffffffffff1673ffffffffffffffffffffffffffffffffffffffff16815260200190815260200160002060008201518160000160006101000a81548173ffffffffffffffffffffffffffffffffffffffff021916908373ffffffffffffffffffffffffffffffffffffffff16021790555060208201518160010155604082015181600201559050505b3460056000828254610a419190611930565b92505081905550565b6000600760008373ffffffffffffffffffffffffffffffffffffffff1673ffffffffffffffffffffffffffffffffffffffff168152602001908152602001600020600101549050919050565b60006301e1338090506000600760008473ffffffffffffffffffffffffffffffffffffffff1673ffffffffffffffffffffffffffffffffffffffff1681526020019081526020016000206001015490506000600760008573ffffffffffffffffffffffffffffffffffffffff1673ffffffffffffffffffffffffffffffffffffffff1681526020019081526020016000206002015490506000606490506000848342610b429190611890565b8386610b4e9190611964565b610b589190611964565b610b6291906119d5565b905080600860008873ffffffffffffffffffffffffffffffffffffffff1673ffffffffffffffffffffffffffffffffffffffff1681526020019081526020016000206000828254610bb39190611930565b92505081905550505050505050565b60008060008373ffffffffffffffffffffffffffffffffffffffff1673ffffffffffffffffffffffffffffffffffffffff168152602001908152602001600020549050919050565b600660009054906101000a900473ffffffffffffffffffffffffffffffffffffffff1681565b60076020528060005260406000206000915090508060000160009054906101000a900473ffffffffffffffffffffffffffffffffffffffff16908060010154908060020154905083565b606060048054610c89906117c4565b80601f0160208091040260200160405190810160405280929190818152602001828054610cb5906117c4565b8015610d025780601f10610cd757610100808354040283529160200191610d02565b820191906000526020600020905b815481529060010190602001808311610ce557829003601f168201915b5050505050905090565b600080610d17610e05565b9050610d24818585610eb3565b600191505092915050565b6000600160008473ffffffffffffffffffffffffffffffffffffffff1673ffffffffffffffffffffffffffffffffffffffff16815260200190815260200160002060008373ffffffffffffffffffffffffffffffffffffffff1673ffffffffffffffffffffffffffffffffffffffff16815260200190815260200160002054905092915050565b6000600860008373ffffffffffffffffffffffffffffffffffffffff1673ffffffffffffffffffffffffffffffffffffffff168152602001908152602001600020549050919050565b60055481565b600033905090565b610e1a8383836001611029565b505050565b6000610e2b8484610d2f565b90507fffffffffffffffffffffffffffffffffffffffffffffffffffffffffffffffff8114610ead5781811015610e9d578281836040517ffb8f41b2000000000000000000000000000000000000000000000000000000008152600401610e949392919061171e565b60405180910390fd5b610eac84848484036000611029565b5b50505050565b600073ffffffffffffffffffffffffffffffffffffffff168373ffffffffffffffffffffffffffffffffffffffff1603610f255760006040517f96c6fd1e000000000000000000000000000000000000000000000000000000008152600401610f1c9190611703565b60405180910390fd5b600073ffffffffffffffffffffffffffffffffffffffff168273ffffffffffffffffffffffffffffffffffffffff1603610f975760006040517fec442f05000000000000000000000000000000000000000000000000000000008152600401610f8e9190611703565b60405180910390fd5b610fa2838383611200565b505050565b600073ffffffffffffffffffffffffffffffffffffffff168273ffffffffffffffffffffffffffffffffffffffff16036110195760006040517fec442f050000000000000000000000000000000000000000000000000000000081526004016110109190611703565b60405180910390fd5b61102560008383611200565b5050565b600073ffffffffffffffffffffffffffffffffffffffff168473ffffffffffffffffffffffffffffffffffffffff160361109b5760006040517fe602df050000000000000000000000000000000000000000000000000000000081526004016110929190611703565b60405180910390fd5b600073ffffffffffffffffffffffffffffffffffffffff168373ffffffffffffffffffffffffffffffffffffffff160361110d5760006040517f94280d620000000000000000000000000000000000000000000000000000000081526004016111049190611703565b60405180910390fd5b81600160008673ffffffffffffffffffffffffffffffffffffffff1673ffffffffffffffffffffffffffffffffffffffff16815260200190815260200160002060008573ffffffffffffffffffffffffffffffffffffffff1673ffffffffffffffffffffffffffffffffffffffff1681526020019081526020016000208190555080156111fa578273ffffffffffffffffffffffffffffffffffffffff168473ffffffffffffffffffffffffffffffffffffffff167f8c5be1e5ebec7d5bd14f71427d1e84f3dd0314c0f7b2291e5b200ac8c7c3b925846040516111f19190611580565b60405180910390a35b50505050565b600073ffffffffffffffffffffffffffffffffffffffff168373ffffffffffffffffffffffffffffffffffffffff16036112525780600260008282546112469190611930565b92505081905550611325565b60008060008573ffffffffffffffffffffffffffffffffffffffff1673ffffffffffffffffffffffffffffffffffffffff168152602001908152602001600020549050818110156112de578381836040517fe450d38c0000000000000000000000000000000000000000000000000000000081526004016112d59392919061171e565b60405180910390fd5b8181036000808673ffffffffffffffffffffffffffffffffffffffff1673ffffffffffffffffffffffffffffffffffffffff16815260200190815260200160002081905550505b600073ffffffffffffffffffffffffffffffffffffffff168273ffffffffffffffffffffffffffffffffffffffff160361136e57806002600082825403925050819055506113bb565b806000808473ffffffffffffffffffffffffffffffffffffffff1673ffffffffffffffffffffffffffffffffffffffff168152602001908152602001600020600082825401925050819055505b8173ffffffffffffffffffffffffffffffffffffffff168373ffffffffffffffffffffffffffffffffffffffff167fddf252ad1be2c89b69c2b068fc378daa952ba7f163c4a11628f55a4df523b3ef836040516114189190611580565b60405180910390a3505050565b600081519050919050565b600082825260208201905092915050565b60005b8381101561145f578082015181840152602081019050611444565b60008484015250505050565b6000601f19601f8301169050919050565b600061148782611425565b6114918185611430565b93506114a1818560208601611441565b6114aa8161146b565b840191505092915050565b600060208201905081810360008301526114cf818461147c565b905092915050565b600080fd5b600073ffffffffffffffffffffffffffffffffffffffff82169050919050565b6000611507826114dc565b9050919050565b611517816114fc565b811461152257600080fd5b50565b6000813590506115348161150e565b92915050565b6000602082840312156115505761154f6114d7565b5b600061155e84828501611525565b91505092915050565b6000819050919050565b61157a81611567565b82525050565b60006020820190506115956000830184611571565b92915050565b6115a481611567565b81146115af57600080fd5b50565b6000813590506115c18161159b565b92915050565b600080604083850312156115de576115dd6114d7565b5b60006115ec85828601611525565b92505060206115fd858286016115b2565b9150509250929050565b60008115159050919050565b61161c81611607565b82525050565b60006020820190506116376000830184611613565b92915050565b600080600060608486031215611656576116556114d7565b5b600061166486828701611525565b935050602061167586828701611525565b9250506040611686868287016115b2565b9150509250925092565b6000602082840312156116a6576116a56114d7565b5b60006116b4848285016115b2565b91505092915050565b600060ff82169050919050565b6116d3816116bd565b82525050565b60006020820190506116ee60008301846116ca565b92915050565b6116fd816114fc565b82525050565b600060208201905061171860008301846116f4565b92915050565b600060608201905061173360008301866116f4565b6117406020830185611571565b61174d6040830184611571565b949350505050565b6000806040838503121561176c5761176b6114d7565b5b600061177a85828601611525565b925050602061178b85828601611525565b9150509250929050565b7f4e487b7100000000000000000000000000000000000000000000000000000000600052602260045260246000fd5b600060028204905060018216806117dc57607f821691505b6020821081036117ef576117ee611795565b5b50919050565b7f4e6f7420656e6f756768207374616b6564210000000000000000000000000000600082015250565b600061182b601283611430565b9150611836826117f5565b602082019050919050565b6000602082019050818103600083015261185a8161181e565b9050919050565b7f4e487b7100000000000000000000000000000000000000000000000000000000600052601160045260246000fd5b600061189b82611567565b91506118a683611567565b92508282039050818111156118be576118bd611861565b5b92915050565b7f4e6f207265776172647320746f20636c61696d21000000000000000000000000600082015250565b60006118fa601483611430565b9150611905826118c4565b602082019050919050565b60006020820190508181036000830152611929816118ed565b9050919050565b600061193b82611567565b915061194683611567565b925082820190508082111561195e5761195d611861565b5b92915050565b600061196f82611567565b915061197a83611567565b925082820261198881611567565b9150828204841483151761199f5761199e611861565b5b5092915050565b7f4e487b7100000000000000000000000000000000000000000000000000000000600052601260045260246000fd5b60006119e082611567565b91506119eb83611567565b9250826119fb576119fa6119a6565b5b82820490509291505056fea2646970667358221220dcd21ba63008d7ea2f905f8e48d3413f2726cdc3e149f9ef6c590a4dec858b1e64736f6c63430008180033",
  "linkReferences": {},
  "deployedLinkReferences": {}
}